:100000000C9463000C948B000C948B000C948B006C
:100010000C948B000C948B000C948B000C94F006C9
:100020000C948B000C948B000C948B000C94BC07EC
:100030000C948B000C948B000C948B000C948B0014
:100040000C9472070C948B000C948B000C948B0016
:100050000C948B000C948B000C948B000C948B00F4
:100060000C948B000C948B000000000024002700EF
:100070002A000000000023002600290000000008DC
:10008000000201000003040700000000000000005F
:10009000010204081020408001020408102001021F
:1000A0000408102000000000250028002B00040494
:1000B0000404040404040202020202020303030310
:1000C000030302006F0A11241FBECFEFD8E0DEBF8A
:1000D000CDBF11E0A0E0B1E0EEE2F7E102C0059093
:1000E0000D92A236B107D9F722E0A2E6B1E001C035
:1000F0001D92A833B207E1F710E0C3E6D0E004C0D8
:100100002197FE010E94860BC236D107C9F70E94D3
:1001100078080C94950B0C9400008F929F92AF92EC
:10012000BF92FF920F931F93CF93DF93F0901D0226
:100130002BE02F1508F44CC020911F0208E512E0B7
:10014000021B110927FD1395000F111F000F111F2E
:1001500020911E02C8E8D0E0C21BD10927FDD3952B
:10016000CC0FDD1FCC0FDD1F4E010D2E000CAA0899
:10017000BB089801012E000C440B550B28193909B6
:100180004A095B09DC010E94410B24EB30E040E0AE
:1001900050E00E94170B820E931EA41EB51E8C16F3
:1001A0009D062CF0E801801691060CF4E4012297DC
:1001B000CC0FDD1F2FB7F8948F2D90E0FC01EE0FD0
:1001C000FF1FE80FF91FE750FE4FD283C1832FBFF7
:1001D000DF91CF911F910F91FF90BF90AF909F90B3
:1001E0008F90089596E0899FD0011124A758BE4FA3
:1001F00090967C936E935F9791E091969C939197E4
:10020000E091E601F091E7019091E501992339F041
:10021000309751F0811108C0809195010994309771
:1002200019F05C968C91FACF0895CF92DF92EF92FD
:10023000FF920F931F9396E0899FF0011124E758D6
:10024000FE4F11A2278D30A12130310551F178F0F8
:100250002230310509F451C02330310509F452C070
:100260001F910F91FF90EF90DF90CF90089566233C
:10027000B9F361E070E00E94F2002FB7F89480912A
:10028000750190917601A0917701B09178012FBF0F
:100290008093D1019093D201A093D301B093D40164
:1002A000DFCF9FB7F894C0907501D0907601E090B1
:1002B0007701F09078019FBF0091D1011091D20198
:1002C0002091D3013091D401C01AD10AE20AF30A75
:1002D0000091E3011091E40130E020E00C151D05D0
:1002E0002E053F0550F462E070E01F910F91FF90E2
:1002F000EF90DF90CF900C94F2006111B1CF63E0EA
:1003000070E0F3CF70E060E0F0CFAF92BF92CF9299
:10031000DF92EF92FF920F931F93CF93DF936C01C5
:100320007B018B01040F151FEB015E01AE18BF08A6
:10033000C017D10759F06991D601ED91FC91019058
:10034000F081E02DC6010995892B79F7C501DF9170
:10035000CF911F910F91FF90EF90DF90CF90BF90C2
:10036000AF900895833081F028F4813099F0823085
:10037000A9F008958730A9F08830C9F08430B1F42D
:10038000809180008F7D03C0809180008F77809363
:100390008000089584B58F7784BD089584B58F7DDE
:1003A000FBCF8091B0008F778093B000089580914B
:1003B000B0008F7DF9CFCF93DF93282F30E0F90184
:1003C000E458FF4F8491F901E057FF4FD491F901B0
:1003D000E255FF4FC491CC23A1F081110E94B201DC
:1003E000EC2FF0E0EE0FFF1FEE58FF4FA591B491F8
:1003F000EC91ED2381E090E009F480E0DF91CF9172
:10040000089580E090E0FACF862F0C94DB011F93D3
:10041000CF93DF93282F30E0F901E458FF4F849108
:10042000F901E057FF4FD491F901E255FF4FC49114
:10043000CC23A9F0162F81110E94B201EC2FF0E01D
:10044000EE0FFF1FEC55FF4FA591B4918FB7F894B5
:10045000EC91111108C0D095DE23DC938FBFDF91A2
:10046000CF911F910895DE2BF8CF862F642F0C9427
:100470000702CF93DF9390E0FC01E057FF4F2491F8
:1004800082559F4FFC0184918823C9F090E0880F2A
:10049000991FFC01E859FF4FA591B491FC01EC555F
:1004A000FF4FC591D49161110DC09FB7F8948C9105
:1004B000209582238C938881282328839FBFDF91F6
:1004C000CF910895623051F49FB7F8943C91822FF8
:1004D000809583238C93E8812E2BEFCF8FB7F894F0
:1004E000EC912E2B2C938FBFEACF8F929F92AF92DD
:1004F000BF92CF92DF92EF92FF920F931F93CF9311
:100500008C016A017B01809113018C3079F08F3F5F
:1005100009F44FC0CF911F910F91FF90EF90DF90A2
:10052000CF90BF90AF909F908F900895E2ECF0E055
:10053000C491C7FDEFCF61E08CE00E943902C11188
:100540004EC0980150E040E068E478EE81E090E031
:100550000E94170B49015A0181E0881A9108A108ED
:10056000B10885B5887F836085BDD801AA0FBB1F00
:10057000A70196010E94360B28EE33E040E050E0E0
:100580000E94490BC13009F4B4C0C23009F4C3C0A1
:10059000C111C0CF87BC2093F5013093F601409381
:1005A000F7015093F80180916E00826080936E0095
:1005B000B1CF8CE080931301E2ECF0E0C491CF3F27
:1005C00009F4A8CFC13009F43DC018F1C23009F4D4
:1005D00057C0C7FD9FCF61E08CE00E9439029801AF
:1005E00050E040E0C23009F06DC060E970ED83E09A
:1005F00090E00E94170B49015A0181E0881A910886
:10060000A108B1088091B100887F83608093B10018
:10061000ACCF14BC15BC84B5826084BD85B5816047
:1006200085BDEAEBF0E0E491F0E0EE0FFF1FEC5542
:10063000FF4F85919491ECE9F0E0E491E093EC01B7
:10064000C0E079CF109280001092810080918100EB
:100650008860809381008091810081608093810017
:10066000EAEBF0E0E491F0E0EE0FFF1FEC55FF4FF6
:1006700085919491ECE9F0E0E491E093EB015BCF9C
:100680001092B0001092B1008091B000826080930F
:10069000B0008091B10081608093B100EAEBF0E09E
:1006A000E491F0E0EE0FFF1FEC55FF4F8591949120
:1006B0009093EA018093E901ECE9F0E0E491E093A2
:1006C000E80139CF60E072E18AE790E00E94170B01
:1006D00049015A0181E0881A9108A108B108C13086
:1006E00009F043CF80918100887F816080938100F1
:1006F0003CCF90928900809288002093F101309342
:10070000F2014093F3015093F40180916F008260F5
:1007100080936F00FFCE8092B3002093ED01309361
:10072000EE014093EF015093F001809170008260E0
:1007300080937000EFCE862F642F0C9439026F9255
:100740007F928F929F92AF92BF92CF92DF92EF9261
:10075000FF920F931F93CF93DF9381E08093E50186
:100760008FB7F894409175015091760160917701AF
:10077000709178018FBF8091D5019091D601A091A1
:10078000D701B091D801481B590B6A0B7B0B8091A4
:10079000E1019091E201B0E0A0E084179507A6077F
:1007A000B70708F01DC1C0E08091DF01C81760F4F1
:1007B000E091DB01F091DC01EC0FF11D62E0808142
:1007C0000E943902CF5FF0CF712C812C912C540103
:1007D00083948091E001781608F05FC0072D10E047
:1007E000E091DD01F091DE01E00FF11F61E0808119
:1007F0000E943902E091DD01F091DE01E00FF11F6E
:1008000060E080810E940702D501C401072C04C06A
:10081000880F991FAA1FBB1F0A94D2F76C017C0195
:10082000E094F094612C8091DF016816F8F4C62DF5
:10083000D0E0E091DB01F091DC01EC0FFD1F808145
:100840000E94DB012496CC0FDD1FC758DE4F892B99
:1008500041F4888199818C299D29998388836394A7
:10086000E2CF888199818E219F21F7CFE091DD0130
:10087000F091DE01E00FF11F61E080810E9407022C
:100880008091DD019091DE01080F191F60E0F801F1
:1008900080810E94390273949CCFC9E7D1E0FE01A8
:1008A0008FEF9FEF278D30A1232B21F4148E968F8D
:1008B000858F11A2369621E0E53BF20799F7F12CDE
:1008C00096E0D92E8091DF01F81608F050C0E12C97
:1008D0000F2D10E0000F111F0F571E4F2091E00148
:1008E000E21608F042C0F801608171810E2C02C04E
:1008F000769567950A94E2F7F29E900111242E0DE9
:10090000311DE9E7F1E080E0458D568D241735076C
:1009100009F46AC08F5F36968A30B1F760FF23C052
:10092000E9E7F1E090E080E0448D411117C0E091EB
:10093000D901F091DA01E20FF31F4081D89EF00156
:10094000D99EF00D1124E758FE4F448F368F258F26
:1009500010A2178E61E00E94150105C0019636961F
:100960008A30910509F7E394B9CFF394ABCF80E0D7
:1009700099A19111892F2696F1E0C53BDF07C1F7B8
:100980009FB7F8944091750150917601609177017D
:10099000709178019FBF4093D5015093D601609329
:1009A000D7017093D8018823D9F080919A018823C8
:1009B000B9F08091980190919901019789F4809103
:1009C0009501DF91CF911F910F91FF90EF90DF90F4
:1009D000CF90BF90AF909F908F907F906F90089531
:1009E0001092E50180E0EDCF6170B5CF3FB7F8948C
:1009F0008091650190916601A0916701B0916801B5
:100A000026B5A89B05C02F3F19F00196A11DB11D69
:100A10003FBFBA2FA92F982F8827BC01CD01620FA5
:100A2000711D811D911D42E0660F771F881F991F60
:100A30004A95D1F708958F929F92AF92BF92CF922D
:100A4000DF92EF92FF924B015C010E94F6046B0172
:100A50007C010E94F6046C197D098E099F09683E8D
:100A6000734081059105A8F321E0821A9108A1083D
:100A7000B10888EEC80E83E0D81EE11CF11C811479
:100A80009104A104B10429F7FF90EF90DF90CF907B
:100A9000BF90AF909F908F900895089590E080E070
:100AA0000895FC0101900020E9F73197AF01481B40
:100AB000590BBC0180E292E00C948501CF93DF9347
:100AC000EC0160E08E810E94070261E08E810E944D
:100AD000070260E08E810E9407028BE891E0019797
:100AE000F1F7DF91CF910895CF92DF92EF92FF92CD
:100AF0000F931F93CF93DF936C017C0187E0E80E87
:100B0000F11CD0E0C0E0062F10E0B8010C2E02C0AE
:100B1000759567950A94E2F76170F70181917F01FD
:100B20000E9407022196C430D10579F7C601DF91F2
:100B3000CF911F910F91FF90EF90DF90CF900C9489
:100B40005E05CF92DF92EF92FF920F931F93CF93A8
:100B5000DF93EC01F62E642F8C810E9407028D81B9
:100B60008F3F19F060E00E9407020F2D10E08F8583
:100B700084FF25C06E0187E0C80ED11CF12CE12C4A
:100B8000B8010E2C02C0759567950A94E2F7617062
:100B9000F60181916F010E940702FFEFEF1AFF0A31
:100BA00088E0E816F10461F7CE01DF91CF911F9143
:100BB0000F91FF90EF90DF90CF900C945E05B801FD
:100BC00084E0759567958A95E1F7CE010E947405DA
:100BD0006F2DCE01DF91CF911F910F91FF90EF907C
:100BE000DF90CF900C94740540E0682F80E292E093
:100BF0000C94A10581E00E94F4058BE39FE101972D
:100C0000F1F7089590E080E00E948D0061E08AE0B5
:100C10000E94070260E08BE00E9407020E94FA0532
:100C20008AE291E00C945105CF93DF93823029F44E
:100C300090912F02986090932F028093330210922C
:100C4000340280E48093350280E18093360280E5AF
:100C50008093370261E0809124020E9439028091E2
:100C600025028F3F19F061E00E94390261E0809116
:100C700026020E943902C0E2D2E09E012052324098
:100C800080912F0284FD0BC084E090E0219628170C
:100C9000390744F461E08E810E943902EECF88E08A
:100CA00090E0F4CF8BE39DE00197F1F760E0809155
:100CB00024020E94070260E0809126020E9407023F
:100CC000809125028F3F19F060E00E940702809119
:100CD0002F0284FD34C063E080E292E00E9474053C
:100CE000CBE4D6E4CE010197F1F763E080E292E035
:100CF0000E9474052197F1F763E080E292E00E9480
:100D0000740583E592E00197F1F762E080E292E0FA
:100D10000E94740580912F0280620E94F40584E095
:100D2000809330028CE00E94F4050E94FA0582E074
:100D30008093310286E0DF91CF910C94F4058062BC
:100D40000E94F4058BE496E40197F1F780912F025D
:100D500080620E94F40583E592E00197F1F78091AB
:100D60002F0280620E94F405D5CF41E00E94A105C8
:100D700081E090E00895E0E7F1E085E0DF011D9279
:100D80008A95E9F708958AE590E00E948D0060E079
:100D90008AE00E94070261E08BE00E9407020E9445
:100DA000FA058BE391E00E9451050C94BB060F936A
:100DB0001F93CF93DF930BE611E0D0E0C0E0CE01AC
:100DC0000E94010BF80181938F012196C430D10557
:100DD000B1F710926F01DF91CF911F910F9108959C
:100DE0001F920F920FB60F9211242F933F934F93A0
:100DF0005F936F937F938F939F93AF93BF93EF9383
:100E0000FF938091ED019091EE01A091EF01B091DF
:100E1000F001892B8A2B8B2BD1F19091E801E09185
:100E2000E901F091EA018081892780838091ED01B9
:100E30009091EE01A091EF01B091F0011816190602
:100E40001A061B069CF48091ED019091EE01A09191
:100E5000EF01B091F0010197A109B1098093ED0173
:100E60009093EE01A093EF01B093F001FF91EF9109
:100E7000BF91AF919F918F917F916F915F914F91B2
:100E80003F912F910F900FBE0F901F90189580915A
:100E90001301E2ECF0E0E4919FEF90931301E13055
:100EA00051F030F0E23069F060E00E940702DECFDE
:100EB00010926E00F9CF90916F009D7F90936F001C
:100EC000F3CF909170009D7F9093700091E090938C
:100ED000B0009091B100987F94609093B10010920F
:100EE000B300E2CF1F920F920FB60F9211242F93EF
:100EF0003F938F939F93AF93BF9380917501909190
:100F00007601A0917701B09178013091640123E0DE
:100F1000230F2D3758F50196A11DB11D20936401B3
:100F20008093750190937601A0937701B093780137
:100F30008091650190916601A0916701B09168016F
:100F40000196A11DB11D8093650190936601A09348
:100F50006701B0936801BF91AF919F918F913F91CD
:100F60002F910F900FBE0F901F90189526E8230F1A
:100F70000296A11DB11DD2CF1F920F920FB60F92F4
:100F800011242F933F934F935F936F937F938F938E
:100F90009F93AF93BF93CF93DF93EF93FF93809192
:100FA0006301C0916201D0E087FF24C010928500E8
:100FB00010928400809163018F5F80936301809120
:100FC0006301082E000C990B8C179D0724F4809167
:100FD00063018C30C4F18091840090918500049667
:100FE00080349C4908F47AC08091840090918500F7
:100FF000049676C080916301082E000C990B8C1723
:101000009D07C4F6E09163018E2FEE0F990BFC0152
:10101000EE0FFF1FE80FF91FE750FE4F808186FF9C
:10102000C9CFE09163018E2FEE0F990BFC01EE0FFB
:10103000FF1FE80FF91FE750FE4F808160E08F73BC
:101040000E940702B7CF2091840030918500E09183
:1010500063018E2FEE0F990BFC01EE0FFF1FE80FBF
:10106000F91FE750FE4F81819281820F931F909369
:10107000890080938800E09163018E2FEE0F990B19
:10108000FC01EE0FFF1FE80FF91FE750FE4F8081B4
:1010900086FF11C0E09163018E2FEE0F990BFC01CA
:1010A000EE0FFF1FE80FF91FE750FE4F808161E050
:1010B0008F730E940702FF91EF91DF91CF91BF9153
:1010C000AF919F918F917F916F915F914F913F91E0
:1010D0002F910F900FBE0F901F90189580E49CE900
:1010E00090938900809388008FEF80936301E3CF12
:1010F000789484B5826084BD84B5816084BD85B5F3
:10110000826085BD85B5816085BD80916E008160FE
:1011100080936E00109281008091810082608093A4
:1011200081008091810081608093810080918000A6
:101130008160809380008091B10084608093B100D1
:101140008091B00081608093B00080917A008460CB
:1011500080937A0080917A00826080937A008091F7
:101160007A00816080937A0080917A008068809311
:101170007A001092C10082E00E941406E1E08091A2
:1011800033028111E0E0E195F0E0E05EFD4F8489FB
:1011900080680E94F40582E391E00E94510561E0BD
:1011A00083E00E94390261E08CE00E94390261E034
:1011B0008AE00E94390261E08BE00E94390262E01D
:1011C0008DE00E94390262E081E00E943902809144
:1011D0001D028C3008F051C061E083E00E943902AA
:1011E00080911D02282F30E0F901EE0FFF1FE20F62
:1011F000F31FE750FE4F9081907C93609083109294
:101200001E0210921F022CE0622F0E947A0B829F16
:10121000B001112430E020E0AB01420F531FFA016E
:10122000EE0FFF1FE40FF51FE750FE4F908196FD74
:1012300016C02F5F3F4F2C30310571F781110FC061
:101240001092800082E080938100109285001092BD
:101250008400B19A80916F00826080936F00E0916A
:101260001D028E2F90E0FC01EE0FFF1FE80FF91F0B
:10127000E750FE4F8081806480830E94D706C0E7DC
:10128000D1E090E0E92E90E0F92E0E949F03182F04
:10129000882309F450C044E650E060E070E088EE36
:1012A00093E00E947502FE0101900020E9F79F0182
:1012B00021573140E0913302E23008F0A8C0E150FC
:1012C000F0E0E05EFD4F8489820F80680E94F405A3
:1012D00041E06AE280E292E00E94A105FE010190F5
:1012E0000020E9F7CF01815791408430910548F4FF
:1012F00080599E4FFC011083FE0101900020E9F708
:101300001082FE0101900020E9F7E557F14099F4C1
:101310006BE671E080E791E00E948C0B892B09F06D
:1013200078C00E94020668EB7BE080E090E00E94BB
:101330001B050E94C3068DE00E94DB01892B51F43E
:101340000E94020668EB7BE080E090E00E941B05B3
:101350000E94C30681E00E94DB018C01892B09F009
:10136000B7C00E94FA0581E491E00E94510568EE41
:1013700073E080E090E00E941B050E94FA058CE477
:1013800091E00E94510568EE73E080E090E00E94D9
:101390001B050E94BB06FE0101900020E9F7CF016A
:1013A00081579140049708F06EC00E949F03D82E89
:1013B000882389F3FE0101900020E9F79F0121575E
:1013C0003140E0913302E23008F05BC0E150F0E0E0
:1013D000E05EFD4F8489820F80680E94F40541E041
:1013E0006AE280E292E00E94A105FE0101900020E5
:1013F000E9F73197D082FE0101900020E9F71082D1
:1014000064EF71E080E090E00E941B05C4CFE1E052
:1014100057CF03E010E048EC50E060E070E080ED72
:1014200097E00E94750264EF71E080E090E00E9416
:101430001B050150110979F78091690190916A01AA
:10144000019690936A01809369010397B9F405E0CE
:1014500010E044EF51E060E070E080ED97E00E9422
:10146000750264EF71E080E090E00E941B0501507E
:10147000110979F710926A01109269010E94BB0666
:101480005ACFE1E0A4CF80E7C82E81E0D82EF60144
:1014900061916F01C8010E94090B0F5F1F4F04305B
:1014A0001105A9F70E94D7060E94FA0587E591E089
:1014B0000E94510560ED77E080E090E00E941B05FE
:1014C0000E94FA0582E391E00E9451050E94BB064A
:1014D000E114F10409F4D9CE0E940000D6CECF93D6
:1014E00010927B0110927F0110927E011092800178
:1014F00084E291E090937A0180937901E5E9F1E04B
:101500001082148213821582369681E0E13DF8073D
:10151000B9F783E091E09093DC018093DB0180E0F8
:1015200091E09093DE018093DD0184E08093DF0100
:1015300093E09093E00127E031E03093DA012093CB
:10154000D9012AE030E03093E2012093E10124EF59
:1015500031E03093E4012093E3011092E70110920F
:10156000E6011092D5011092D6011092D701109287
:10157000D8011092E501109223021092220228E174
:1015800031E0309321022093200298E090932402CE
:10159000CFEFC093250299E0909326028093270213
:1015A00085E08093280286E08093290287E080937B
:1015B0002A0210922B0210922C0210922D021092ED
:1015C0002E0210922F0281E00E9414068091620187
:1015D0008C30A0F491E0980F9093620180931D02EB
:1015E00090E0FC01EE0FFF1FE80FF91FE750FE4FE0
:1015F00088EB9BE092838183CF910895C0931D0275
:10160000FBCFF999FECF92BD81BDF89A992780B59D
:101610000895262FF999FECF1FBA92BD81BD20BD36
:101620000FB6F894FA9AF99A0FBE01960895052E0E
:1016300097FB1EF400940E942E0B57FD07D00E94CA
:10164000490B07FC03D04EF40C942E0B509540959B
:10165000309521953F4F4F4F5F4F0895909580955E
:10166000709561957F4F8F4F9F4F08950E946B0B30
:10167000A59F900DB49F900DA49F800D911D1124E6
:101680000895B7FF0C94360B0E94360B821B930B08
:101690000895A1E21A2EAA1BBB1BFD010DC0AA1FB3
:1016A000BB1FEE1FFF1FA217B307E407F50720F0CB
:1016B000A21BB30BE40BF50B661F771F881F991F46
:1016C0001A9469F760957095809590959B01AC018F
:1016D000BD01CF010895A29FB001B39FC001A39F98
:1016E000700D811D1124911DB29F700D811D11245B
:1016F000911D0895991B79E004C0991F961708F071
:10170000961B881F7A95C9F780950895EE0FFF1FE5
:101710000590F491E02D0994FB01DC018D9101907D
:0E17200080190110D9F3990B0895F894FFCFAA
:10172E001213020E0F101131323334353637383969
:10173E002A3023FF00000000B50685014E054D0539
:10174E00000000009B033502040254657262756B43
:10175E0061004D6173756B6B616E204B6F64653A02
:10176E00005265736574204B6F6465004B6F646542
:10177E0020426172753A004B6F6465205265736545
:02178E007400E5
:00000001FF
